{
  "address": "0xf391B2abe96cac194f266c5ecD0197c1F3785C5f",
  "abi": [
    {
      "inputs": [],
      "name": "ERC1167FailedCreateClone",
      "type": "error"
    },
    {
      "anonymous": false,
      "inputs": [
        {
          "indexed": true,
          "internalType": "address",
          "name": "strategy",
          "type": "address"
        },
        {
          "indexed": true,
          "internalType": "address",
          "name": "pool",
          "type": "address"
        },
        {
          "components": [
            {
              "internalType": "address",
              "name": "owner",
              "type": "address"
            },
            {
              "internalType": "address[]",
              "name": "admins",
              "type": "address[]"
            },
            {
              "internalType": "address",
              "name": "allocationToken",
              "type": "address"
            },
            {
              "internalType": "address",
              "name": "distributionToken",
              "type": "address"
            },
            {
              "internalType": "uint256",
              "name": "maxAmount",
              "type": "uint256"
            },
            {
              "internalType": "uint64[]",
              "name": "timestamps",
              "type": "uint64[]"
            },
            {
              "internalType": "string",
              "name": "metadataURI",
              "type": "string"
            }
          ],
          "indexed": false,
          "internalType": "struct PoolConfig",
          "name": "config",
          "type": "tuple"
        }
      ],
      "name": "Created",
      "type": "event"
    },
    {
      "inputs": [
        {
          "internalType": "address",
          "name": "implementation",
          "type": "address"
        },
        {
          "components": [
            {
              "internalType": "address",
              "name": "owner",
              "type": "address"
            },
            {
              "internalType": "address[]",
              "name": "admins",
              "type": "address[]"
            },
            {
              "internalType": "address",
              "name": "allocationToken",
              "type": "address"
            },
            {
              "internalType": "address",
              "name": "distributionToken",
              "type": "address"
            },
            {
              "internalType": "uint256",
              "name": "maxAmount",
              "type": "uint256"
            },
            {
              "internalType": "uint64[]",
              "name": "timestamps",
              "type": "uint64[]"
            },
            {
              "internalType": "string",
              "name": "metadataURI",
              "type": "string"
            }
          ],
          "internalType": "struct PoolConfig",
          "name": "config",
          "type": "tuple"
        },
        {
          "internalType": "bytes",
          "name": "data",
          "type": "bytes"
        }
      ],
      "name": "deploy",
      "outputs": [
        {
          "internalType": "address",
          "name": "",
          "type": "address"
        }
      ],
      "stateMutability": "nonpayable",
      "type": "function"
    }
  ],
  "transactionHash": "0x0919a12eb510ae75ef878d00e3086317d281e44470715a835bdf950f933d1eb7",
  "args": [],
  "numDeployments": 1,
  "solcInputHash": "68abb0f96633951c4834d81434b5b092",
  "bytecode": "0x608060405234801561001057600080fd5b506104d9806100206000396000f3fe608060405234801561001057600080fd5b506004361061002b5760003560e01c80633938e38c14610030575b600080fd5b61004361003e3660046101ad565b61005f565b6040516001600160a01b03909116815260200160405180910390f35b60008061006b86610124565b60405163ab21f50760e01b81529091506001600160a01b0382169063ab21f5079061009e90889088908890600401610463565b600060405180830381600087803b1580156100b857600080fd5b505af11580156100cc573d6000803e3d6000fd5b50505050806001600160a01b0316866001600160a01b03167f8f487663f675208b5266b806b4c6b412dbb37cf38075b3291c9880665237ead9876040516101139190610489565b60405180910390a395945050505050565b6000763d602d80600a3d3981f3363d3d373d3d3d363d730000008260601b60e81c176000526e5af43d82803e903d91602b57fd5bf38260781b17602052603760096000f090506001600160a01b038116610191576040516330be1a3d60e21b815260040160405180910390fd5b919050565b80356001600160a01b038116811461019157600080fd5b600080600080606085870312156101c357600080fd5b6101cc85610196565b9350602085013567ffffffffffffffff808211156101e957600080fd5b9086019060e082890312156101fd57600080fd5b9093506040860135908082111561021357600080fd5b818701915087601f83011261022757600080fd5b81358181111561023657600080fd5b88602082850101111561024857600080fd5b95989497505060200194505050565b6000808335601e1984360301811261026e57600080fd5b830160208101925035905067ffffffffffffffff81111561028e57600080fd5b8060051b36038213156102a057600080fd5b9250929050565b818352600060208085019450826000805b868110156102eb57823567ffffffffffffffff81168082146102d8578384fd5b89525096830196918301916001016102b8565b50959695505050505050565b6000808335601e1984360301811261030e57600080fd5b830160208101925035905067ffffffffffffffff81111561032e57600080fd5b8036038213156102a057600080fd5b81835281816020850137506000828201602090810191909152601f909101601f19169091010190565b600060e083016001600160a01b038061037e85610196565b168552602061038f81860186610257565b60e088840152938490529260009061010088015b818310156103ca57846103b587610196565b168152948301946001929092019183016103a3565b6103d660408901610196565b6001600160a01b03811660408b015295506103f360608901610196565b6001600160a01b03811660608b01529550608088013560808a015261041b60a0890189610257565b9650945088810360a08a01526104328187876102a7565b9550505050505061044660c08401846102f7565b85830360c087015261045983828461033d565b9695505050505050565b6040815260006104766040830186610366565b828103602084015261045981858761033d565b60208152600061049c6020830184610366565b939250505056fea2646970667358221220c10ae674d7d6903936c4e3a45d6e7ab93b2a487080f3b631da53c602c668a76764736f6c63430008140033",
  "devdoc": {
    "errors": {
      "ERC1167FailedCreateClone()": [
        {
          "details": "A clone instance deployment failed."
        }
      ]
    },
    "kind": "dev",
    "methods": {},
    "version": 1
  },
  "userdoc": {
    "kind": "user",
    "methods": {},
    "version": 1
  },
  "storageLayout": {
    "storage": [],
    "types": null
  }
}