{
  "address": "0x1e38A450296eDa9BfaaeB20Cd55be33AcA83AD6a",
  "abi": [
    {
      "anonymous": false,
      "inputs": [
        {
          "indexed": true,
          "internalType": "address",
          "name": "project",
          "type": "address"
        },
        {
          "indexed": true,
          "internalType": "uint256",
          "name": "index",
          "type": "uint256"
        },
        {
          "indexed": false,
          "internalType": "string",
          "name": "metadataURI",
          "type": "string"
        },
        {
          "indexed": false,
          "internalType": "bytes",
          "name": "data",
          "type": "bytes"
        }
      ],
      "name": "Approve",
      "type": "event"
    },
    {
      "anonymous": false,
      "inputs": [
        {
          "indexed": true,
          "internalType": "address",
          "name": "project",
          "type": "address"
        },
        {
          "indexed": true,
          "internalType": "uint256",
          "name": "index",
          "type": "uint256"
        },
        {
          "indexed": false,
          "internalType": "string",
          "name": "metadataURI",
          "type": "string"
        },
        {
          "indexed": false,
          "internalType": "bytes",
          "name": "data",
          "type": "bytes"
        }
      ],
      "name": "Register",
      "type": "event"
    },
    {
      "inputs": [
        {
          "internalType": "address",
          "name": "project",
          "type": "address"
        },
        {
          "internalType": "uint256",
          "name": "index",
          "type": "uint256"
        },
        {
          "internalType": "string",
          "name": "metadataURI",
          "type": "string"
        },
        {
          "internalType": "bytes",
          "name": "data",
          "type": "bytes"
        }
      ],
      "name": "approve",
      "outputs": [],
      "stateMutability": "nonpayable",
      "type": "function"
    },
    {
      "inputs": [
        {
          "internalType": "address",
          "name": "",
          "type": "address"
        },
        {
          "internalType": "uint256",
          "name": "",
          "type": "uint256"
        }
      ],
      "name": "projects",
      "outputs": [
        {
          "internalType": "enum IRegistry.Status",
          "name": "status",
          "type": "uint8"
        },
        {
          "internalType": "bytes",
          "name": "data",
          "type": "bytes"
        }
      ],
      "stateMutability": "view",
      "type": "function"
    },
    {
      "inputs": [
        {
          "internalType": "address",
          "name": "project",
          "type": "address"
        },
        {
          "internalType": "string",
          "name": "metadataURI",
          "type": "string"
        },
        {
          "internalType": "bytes",
          "name": "data",
          "type": "bytes"
        }
      ],
      "name": "register",
      "outputs": [],
      "stateMutability": "nonpayable",
      "type": "function"
    }
  ],
  "transactionHash": "0x35087293c6dafaa19f122477f865d7a2846a4c42ea33c93298006438bcd3e52b",
  "args": [],
  "numDeployments": 1,
  "solcInputHash": "eaf39a199873f331cb00277b5ca9c331",
  "bytecode": "0x608060405234801561001057600080fd5b50610863806100206000396000f3fe608060405234801561001057600080fd5b50600436106100415760003560e01c806358086775146100465780637ecdd3c51461005b5780639336fd6614610085575b600080fd5b6100596100543660046104d9565b610098565b005b61006e61006936600461054d565b6100a8565b60405161007c9291906105d3565b60405180910390f35b610059610093366004610612565b610159565b6100a383838361016b565b505050565b60006020818152928152604080822090935290815220805460018201805460ff90921692916100d690610690565b80601f016020809104026020016040519081016040528092919081815260200182805461010290610690565b801561014f5780601f106101245761010080835404028352916020019161014f565b820191906000526020600020905b81548152906001019060200180831161013257829003601f168201915b5050505050905082565b610165848484846102d5565b50505050565b6001600160a01b038316600090815260016020526040812080549082610190836106ca565b90915550905060006001600160a01b03851660009081526020818152604080832085845290915290205460ff1660018111156101ce576101ce610577565b146102205760405162461bcd60e51b815260206004820152601a60248201527f50726f6a65637420616c7265616479207265676973746572656400000000000060448201526064015b60405180910390fd5b604080518082018252600080825260208083018690526001600160a01b038816825281815283822085835290529190912081518154829060ff19166001838181111561026e5761026e610577565b021790555060208201516001820190610287908261073f565b5090505080846001600160a01b03167fa9352a56e4f658b5bfde20dc47a4d4dcd3b3fd8f8c142914656085f95996529585856040516102c79291906107ff565b60405180910390a350505050565b6001600160a01b03841660009081526020818152604080832086845290915281205460ff16600181111561030b5761030b610577565b1461036f5760405162461bcd60e51b815260206004820152602e60248201527f50726f6a65637420616c726561647920617070726f766564206f72206e6f742060448201526d1c9959da5cdd195c9959081e595d60921b6064820152608401610217565b60408051808201909152806001815260209081018390526001600160a01b038616600090815280825260408082208783529092522081518154829060ff1916600183818111156103c1576103c1610577565b0217905550602082015160018201906103da908261073f565b5090505082846001600160a01b03167f0ff3b1100e23816c3a8d1bdd54fd87e9525b6dc617a55d5b64dc25229e75f92984846040516102c79291906107ff565b80356001600160a01b038116811461043157600080fd5b919050565b634e487b7160e01b600052604160045260246000fd5b600082601f83011261045d57600080fd5b813567ffffffffffffffff8082111561047857610478610436565b604051601f8301601f19908116603f011681019082821181831017156104a0576104a0610436565b816040528381528660208588010111156104b957600080fd5b836020870160208301376000602085830101528094505050505092915050565b6000806000606084860312156104ee57600080fd5b6104f78461041a565b9250602084013567ffffffffffffffff8082111561051457600080fd5b6105208783880161044c565b9350604086013591508082111561053657600080fd5b506105438682870161044c565b9150509250925092565b6000806040838503121561056057600080fd5b6105698361041a565b946020939093013593505050565b634e487b7160e01b600052602160045260246000fd5b6000815180845260005b818110156105b357602081850181015186830182015201610597565b506000602082860101526020601f19601f83011685010191505092915050565b6000600284106105f357634e487b7160e01b600052602160045260246000fd5b8382526040602083015261060a604083018461058d565b949350505050565b6000806000806080858703121561062857600080fd5b6106318561041a565b935060208501359250604085013567ffffffffffffffff8082111561065557600080fd5b6106618883890161044c565b9350606087013591508082111561067757600080fd5b506106848782880161044c565b91505092959194509250565b600181811c908216806106a457607f821691505b6020821081036106c457634e487b7160e01b600052602260045260246000fd5b50919050565b6000600182016106ea57634e487b7160e01b600052601160045260246000fd5b5060010190565b601f8211156100a357600081815260208120601f850160051c810160208610156107185750805b601f850160051c820191505b8181101561073757828155600101610724565b505050505050565b815167ffffffffffffffff81111561075957610759610436565b61076d816107678454610690565b846106f1565b602080601f8311600181146107a2576000841561078a5750858301515b600019600386901b1c1916600185901b178555610737565b600085815260208120601f198616915b828110156107d1578886015182559484019460019091019084016107b2565b50858210156107ef5787850151600019600388901b60f8161c191681555b5050505050600190811b01905550565b604081526000610812604083018561058d565b8281036020840152610824818561058d565b9594505050505056fea2646970667358221220eeb25a9ab51ded31e71036be08d0851e7053a146f73cd46e01a13e96151dd5c264736f6c63430008140033",
  "devdoc": {
    "kind": "dev",
    "methods": {},
    "version": 1
  },
  "userdoc": {
    "kind": "user",
    "methods": {},
    "version": 1
  },
  "storageLayout": {
    "storage": [
      {
        "astId": 2617,
        "contract": "contracts/extensions/Registry.sol:Registry",
        "label": "projects",
        "offset": 0,
        "slot": "0",
        "type": "t_mapping(t_address,t_mapping(t_uint256,t_struct(Registration)2578_storage))"
      },
      {
        "astId": 2621,
        "contract": "contracts/extensions/Registry.sol:Registry",
        "label": "indexes",
        "offset": 0,
        "slot": "1",
        "type": "t_mapping(t_address,t_uint256)"
      }
    ],
    "types": {
      "t_address": {
        "encoding": "inplace",
        "label": "address",
        "numberOfBytes": "20"
      },
      "t_bytes_storage": {
        "encoding": "bytes",
        "label": "bytes",
        "numberOfBytes": "32"
      },
      "t_enum(Status)2572": {
        "encoding": "inplace",
        "label": "enum IRegistry.Status",
        "numberOfBytes": "1"
      },
      "t_mapping(t_address,t_mapping(t_uint256,t_struct(Registration)2578_storage))": {
        "encoding": "mapping",
        "key": "t_address",
        "label": "mapping(address => mapping(uint256 => struct IRegistry.Registration))",
        "numberOfBytes": "32",
        "value": "t_mapping(t_uint256,t_struct(Registration)2578_storage)"
      },
      "t_mapping(t_address,t_uint256)": {
        "encoding": "mapping",
        "key": "t_address",
        "label": "mapping(address => uint256)",
        "numberOfBytes": "32",
        "value": "t_uint256"
      },
      "t_mapping(t_uint256,t_struct(Registration)2578_storage)": {
        "encoding": "mapping",
        "key": "t_uint256",
        "label": "mapping(uint256 => struct IRegistry.Registration)",
        "numberOfBytes": "32",
        "value": "t_struct(Registration)2578_storage"
      },
      "t_struct(Registration)2578_storage": {
        "encoding": "inplace",
        "label": "struct IRegistry.Registration",
        "members": [
          {
            "astId": 2575,
            "contract": "contracts/extensions/Registry.sol:Registry",
            "label": "status",
            "offset": 0,
            "slot": "0",
            "type": "t_enum(Status)2572"
          },
          {
            "astId": 2577,
            "contract": "contracts/extensions/Registry.sol:Registry",
            "label": "data",
            "offset": 0,
            "slot": "1",
            "type": "t_bytes_storage"
          }
        ],
        "numberOfBytes": "64"
      },
      "t_uint256": {
        "encoding": "inplace",
        "label": "uint256",
        "numberOfBytes": "32"
      }
    }
  }
}