{
  "address": "0x156BbFd1B33Dd31a53b2e1F0D51DEe9658E0E8bc",
  "abi": [
    {
      "inputs": [
        {
          "internalType": "string",
          "name": "_name",
          "type": "string"
        },
        {
          "internalType": "string",
          "name": "_schema",
          "type": "string"
        },
        {
          "components": [
            {
              "internalType": "address",
              "name": "owner",
              "type": "address"
            },
            {
              "internalType": "address[]",
              "name": "admins",
              "type": "address[]"
            },
            {
              "internalType": "address",
              "name": "allocationToken",
              "type": "address"
            },
            {
              "internalType": "address",
              "name": "distributionToken",
              "type": "address"
            },
            {
              "internalType": "uint256",
              "name": "maxAmount",
              "type": "uint256"
            },
            {
              "internalType": "uint64[]",
              "name": "timestamps",
              "type": "uint64[]"
            },
            {
              "internalType": "string",
              "name": "metadataURI",
              "type": "string"
            }
          ],
          "internalType": "struct PoolConfig",
          "name": "_config",
          "type": "tuple"
        }
      ],
      "stateMutability": "nonpayable",
      "type": "constructor"
    },
    {
      "inputs": [],
      "name": "AccessControlBadConfirmation",
      "type": "error"
    },
    {
      "inputs": [
        {
          "internalType": "address",
          "name": "account",
          "type": "address"
        },
        {
          "internalType": "bytes32",
          "name": "neededRole",
          "type": "bytes32"
        }
      ],
      "name": "AccessControlUnauthorizedAccount",
      "type": "error"
    },
    {
      "inputs": [],
      "name": "ReentrancyGuardReentrantCall",
      "type": "error"
    },
    {
      "anonymous": false,
      "inputs": [
        {
          "indexed": true,
          "internalType": "address",
          "name": "from",
          "type": "address"
        },
        {
          "indexed": true,
          "internalType": "address",
          "name": "to",
          "type": "address"
        },
        {
          "indexed": false,
          "internalType": "uint256",
          "name": "amount",
          "type": "uint256"
        },
        {
          "indexed": false,
          "internalType": "address",
          "name": "token",
          "type": "address"
        },
        {
          "indexed": false,
          "internalType": "bytes",
          "name": "data",
          "type": "bytes"
        }
      ],
      "name": "Allocate",
      "type": "event"
    },
    {
      "anonymous": false,
      "inputs": [
        {
          "indexed": true,
          "internalType": "address",
          "name": "project",
          "type": "address"
        },
        {
          "indexed": true,
          "internalType": "address",
          "name": "approver",
          "type": "address"
        },
        {
          "indexed": false,
          "internalType": "string",
          "name": "metadataURI",
          "type": "string"
        },
        {
          "indexed": false,
          "internalType": "bytes",
          "name": "data",
          "type": "bytes"
        }
      ],
      "name": "Approve",
      "type": "event"
    },
    {
      "anonymous": false,
      "inputs": [
        {
          "indexed": false,
          "internalType": "string",
          "name": "name",
          "type": "string"
        },
        {
          "indexed": true,
          "internalType": "address",
          "name": "owner",
          "type": "address"
        },
        {
          "indexed": false,
          "internalType": "string",
          "name": "schema",
          "type": "string"
        },
        {
          "components": [
            {
              "internalType": "address",
              "name": "owner",
              "type": "address"
            },
            {
              "internalType": "address[]",
              "name": "admins",
              "type": "address[]"
            },
            {
              "internalType": "address",
              "name": "allocationToken",
              "type": "address"
            },
            {
              "internalType": "address",
              "name": "distributionToken",
              "type": "address"
            },
            {
              "internalType": "uint256",
              "name": "maxAmount",
              "type": "uint256"
            },
            {
              "internalType": "uint64[]",
              "name": "timestamps",
              "type": "uint64[]"
            },
            {
              "internalType": "string",
              "name": "metadataURI",
              "type": "string"
            }
          ],
          "indexed": false,
          "internalType": "struct PoolConfig",
          "name": "config",
          "type": "tuple"
        }
      ],
      "name": "Deployed",
      "type": "event"
    },
    {
      "anonymous": false,
      "inputs": [
        {
          "indexed": true,
          "internalType": "address",
          "name": "project",
          "type": "address"
        },
        {
          "indexed": true,
          "internalType": "address",
          "name": "owner",
          "type": "address"
        },
        {
          "indexed": false,
          "internalType": "string",
          "name": "metadataURI",
          "type": "string"
        },
        {
          "indexed": false,
          "internalType": "bytes",
          "name": "data",
          "type": "bytes"
        }
      ],
      "name": "Register",
      "type": "event"
    },
    {
      "anonymous": false,
      "inputs": [
        {
          "indexed": true,
          "internalType": "address",
          "name": "project",
          "type": "address"
        },
        {
          "indexed": true,
          "internalType": "address",
          "name": "rejecter",
          "type": "address"
        },
        {
          "indexed": false,
          "internalType": "string",
          "name": "metadataURI",
          "type": "string"
        },
        {
          "indexed": false,
          "internalType": "bytes",
          "name": "data",
          "type": "bytes"
        }
      ],
      "name": "Reject",
      "type": "event"
    },
    {
      "anonymous": false,
      "inputs": [
        {
          "indexed": true,
          "internalType": "bytes32",
          "name": "role",
          "type": "bytes32"
        },
        {
          "indexed": true,
          "internalType": "bytes32",
          "name": "previousAdminRole",
          "type": "bytes32"
        },
        {
          "indexed": true,
          "internalType": "bytes32",
          "name": "newAdminRole",
          "type": "bytes32"
        }
      ],
      "name": "RoleAdminChanged",
      "type": "event"
    },
    {
      "anonymous": false,
      "inputs": [
        {
          "indexed": true,
          "internalType": "bytes32",
          "name": "role",
          "type": "bytes32"
        },
        {
          "indexed": true,
          "internalType": "address",
          "name": "account",
          "type": "address"
        },
        {
          "indexed": true,
          "internalType": "address",
          "name": "sender",
          "type": "address"
        }
      ],
      "name": "RoleGranted",
      "type": "event"
    },
    {
      "anonymous": false,
      "inputs": [
        {
          "indexed": true,
          "internalType": "bytes32",
          "name": "role",
          "type": "bytes32"
        },
        {
          "indexed": true,
          "internalType": "address",
          "name": "account",
          "type": "address"
        },
        {
          "indexed": true,
          "internalType": "address",
          "name": "sender",
          "type": "address"
        }
      ],
      "name": "RoleRevoked",
      "type": "event"
    },
    {
      "anonymous": false,
      "inputs": [
        {
          "indexed": true,
          "internalType": "address",
          "name": "project",
          "type": "address"
        },
        {
          "indexed": true,
          "internalType": "address",
          "name": "updater",
          "type": "address"
        },
        {
          "indexed": false,
          "internalType": "string",
          "name": "metadataURI",
          "type": "string"
        },
        {
          "indexed": false,
          "internalType": "bytes",
          "name": "data",
          "type": "bytes"
        }
      ],
      "name": "Update",
      "type": "event"
    },
    {
      "inputs": [],
      "name": "DEFAULT_ADMIN_ROLE",
      "outputs": [
        {
          "internalType": "bytes32",
          "name": "",
          "type": "bytes32"
        }
      ],
      "stateMutability": "view",
      "type": "function"
    },
    {
      "inputs": [
        {
          "internalType": "address[]",
          "name": "recipients",
          "type": "address[]"
        },
        {
          "internalType": "uint256[]",
          "name": "amounts",
          "type": "uint256[]"
        },
        {
          "internalType": "address",
          "name": "token",
          "type": "address"
        },
        {
          "internalType": "bytes[]",
          "name": "data",
          "type": "bytes[]"
        }
      ],
      "name": "_allocate",
      "outputs": [],
      "stateMutability": "nonpayable",
      "type": "function"
    },
    {
      "inputs": [
        {
          "internalType": "address",
          "name": "project",
          "type": "address"
        },
        {
          "internalType": "string",
          "name": "_metadataURI",
          "type": "string"
        },
        {
          "internalType": "bytes",
          "name": "data",
          "type": "bytes"
        }
      ],
      "name": "_approve",
      "outputs": [],
      "stateMutability": "nonpayable",
      "type": "function"
    },
    {
      "inputs": [
        {
          "internalType": "address[]",
          "name": "recipients",
          "type": "address[]"
        },
        {
          "internalType": "uint256[]",
          "name": "amounts",
          "type": "uint256[]"
        },
        {
          "internalType": "address",
          "name": "token",
          "type": "address"
        },
        {
          "internalType": "bytes[]",
          "name": "data",
          "type": "bytes[]"
        }
      ],
      "name": "_distribute",
      "outputs": [],
      "stateMutability": "nonpayable",
      "type": "function"
    },
    {
      "inputs": [
        {
          "internalType": "address",
          "name": "project",
          "type": "address"
        },
        {
          "internalType": "string",
          "name": "_metadataURI",
          "type": "string"
        },
        {
          "internalType": "bytes",
          "name": "data",
          "type": "bytes"
        }
      ],
      "name": "_register",
      "outputs": [],
      "stateMutability": "nonpayable",
      "type": "function"
    },
    {
      "inputs": [
        {
          "internalType": "address",
          "name": "project",
          "type": "address"
        },
        {
          "internalType": "string",
          "name": "_metadataURI",
          "type": "string"
        },
        {
          "internalType": "bytes",
          "name": "data",
          "type": "bytes"
        }
      ],
      "name": "_reject",
      "outputs": [],
      "stateMutability": "nonpayable",
      "type": "function"
    },
    {
      "inputs": [
        {
          "internalType": "address",
          "name": "project",
          "type": "address"
        },
        {
          "internalType": "string",
          "name": "_metadataURI",
          "type": "string"
        },
        {
          "internalType": "bytes",
          "name": "data",
          "type": "bytes"
        }
      ],
      "name": "_update",
      "outputs": [],
      "stateMutability": "nonpayable",
      "type": "function"
    },
    {
      "inputs": [
        {
          "internalType": "address[]",
          "name": "recipients",
          "type": "address[]"
        },
        {
          "internalType": "uint256[]",
          "name": "amounts",
          "type": "uint256[]"
        },
        {
          "internalType": "address",
          "name": "token",
          "type": "address"
        },
        {
          "internalType": "bytes[]",
          "name": "data",
          "type": "bytes[]"
        }
      ],
      "name": "allocate",
      "outputs": [],
      "stateMutability": "nonpayable",
      "type": "function"
    },
    {
      "inputs": [
        {
          "internalType": "address",
          "name": "project",
          "type": "address"
        },
        {
          "internalType": "string",
          "name": "_metadataURI",
          "type": "string"
        },
        {
          "internalType": "bytes",
          "name": "data",
          "type": "bytes"
        }
      ],
      "name": "approve",
      "outputs": [],
      "stateMutability": "nonpayable",
      "type": "function"
    },
    {
      "inputs": [],
      "name": "config",
      "outputs": [
        {
          "internalType": "address",
          "name": "owner",
          "type": "address"
        },
        {
          "internalType": "address",
          "name": "allocationToken",
          "type": "address"
        },
        {
          "internalType": "address",
          "name": "distributionToken",
          "type": "address"
        },
        {
          "internalType": "uint256",
          "name": "maxAmount",
          "type": "uint256"
        },
        {
          "internalType": "string",
          "name": "metadataURI",
          "type": "string"
        }
      ],
      "stateMutability": "view",
      "type": "function"
    },
    {
      "inputs": [
        {
          "internalType": "address[]",
          "name": "recipients",
          "type": "address[]"
        },
        {
          "internalType": "uint256[]",
          "name": "amounts",
          "type": "uint256[]"
        },
        {
          "internalType": "address",
          "name": "token",
          "type": "address"
        },
        {
          "internalType": "bytes[]",
          "name": "data",
          "type": "bytes[]"
        }
      ],
      "name": "distribute",
      "outputs": [],
      "stateMutability": "nonpayable",
      "type": "function"
    },
    {
      "inputs": [
        {
          "internalType": "bytes32",
          "name": "role",
          "type": "bytes32"
        }
      ],
      "name": "getRoleAdmin",
      "outputs": [
        {
          "internalType": "bytes32",
          "name": "",
          "type": "bytes32"
        }
      ],
      "stateMutability": "view",
      "type": "function"
    },
    {
      "inputs": [
        {
          "internalType": "bytes32",
          "name": "role",
          "type": "bytes32"
        },
        {
          "internalType": "address",
          "name": "account",
          "type": "address"
        }
      ],
      "name": "grantRole",
      "outputs": [],
      "stateMutability": "nonpayable",
      "type": "function"
    },
    {
      "inputs": [
        {
          "internalType": "bytes32",
          "name": "role",
          "type": "bytes32"
        },
        {
          "internalType": "address",
          "name": "account",
          "type": "address"
        }
      ],
      "name": "hasRole",
      "outputs": [
        {
          "internalType": "bool",
          "name": "",
          "type": "bool"
        }
      ],
      "stateMutability": "view",
      "type": "function"
    },
    {
      "inputs": [
        {
          "components": [
            {
              "internalType": "address",
              "name": "owner",
              "type": "address"
            },
            {
              "internalType": "address[]",
              "name": "admins",
              "type": "address[]"
            },
            {
              "internalType": "address",
              "name": "allocationToken",
              "type": "address"
            },
            {
              "internalType": "address",
              "name": "distributionToken",
              "type": "address"
            },
            {
              "internalType": "uint256",
              "name": "maxAmount",
              "type": "uint256"
            },
            {
              "internalType": "uint64[]",
              "name": "timestamps",
              "type": "uint64[]"
            },
            {
              "internalType": "string",
              "name": "metadataURI",
              "type": "string"
            }
          ],
          "internalType": "struct PoolConfig",
          "name": "_config",
          "type": "tuple"
        },
        {
          "internalType": "bytes",
          "name": "data",
          "type": "bytes"
        }
      ],
      "name": "initialize",
      "outputs": [],
      "stateMutability": "nonpayable",
      "type": "function"
    },
    {
      "inputs": [
        {
          "internalType": "address",
          "name": "project",
          "type": "address"
        },
        {
          "internalType": "string",
          "name": "_metadataURI",
          "type": "string"
        },
        {
          "internalType": "bytes",
          "name": "data",
          "type": "bytes"
        }
      ],
      "name": "register",
      "outputs": [],
      "stateMutability": "nonpayable",
      "type": "function"
    },
    {
      "inputs": [
        {
          "internalType": "address",
          "name": "",
          "type": "address"
        }
      ],
      "name": "registrations",
      "outputs": [
        {
          "internalType": "enum IPool.Status",
          "name": "status",
          "type": "uint8"
        },
        {
          "internalType": "address",
          "name": "owner",
          "type": "address"
        },
        {
          "internalType": "string",
          "name": "metadataURI",
          "type": "string"
        },
        {
          "internalType": "bytes",
          "name": "data",
          "type": "bytes"
        }
      ],
      "stateMutability": "view",
      "type": "function"
    },
    {
      "inputs": [
        {
          "internalType": "address",
          "name": "project",
          "type": "address"
        },
        {
          "internalType": "string",
          "name": "_metadataURI",
          "type": "string"
        },
        {
          "internalType": "bytes",
          "name": "data",
          "type": "bytes"
        }
      ],
      "name": "reject",
      "outputs": [],
      "stateMutability": "nonpayable",
      "type": "function"
    },
    {
      "inputs": [
        {
          "internalType": "bytes32",
          "name": "role",
          "type": "bytes32"
        },
        {
          "internalType": "address",
          "name": "callerConfirmation",
          "type": "address"
        }
      ],
      "name": "renounceRole",
      "outputs": [],
      "stateMutability": "nonpayable",
      "type": "function"
    },
    {
      "inputs": [
        {
          "internalType": "bytes32",
          "name": "role",
          "type": "bytes32"
        },
        {
          "internalType": "address",
          "name": "account",
          "type": "address"
        }
      ],
      "name": "revokeRole",
      "outputs": [],
      "stateMutability": "nonpayable",
      "type": "function"
    },
    {
      "inputs": [
        {
          "internalType": "bytes4",
          "name": "interfaceId",
          "type": "bytes4"
        }
      ],
      "name": "supportsInterface",
      "outputs": [
        {
          "internalType": "bool",
          "name": "",
          "type": "bool"
        }
      ],
      "stateMutability": "view",
      "type": "function"
    },
    {
      "inputs": [
        {
          "internalType": "address",
          "name": "project",
          "type": "address"
        },
        {
          "internalType": "string",
          "name": "_metadataURI",
          "type": "string"
        },
        {
          "internalType": "bytes",
          "name": "data",
          "type": "bytes"
        }
      ],
      "name": "update",
      "outputs": [],
      "stateMutability": "nonpayable",
      "type": "function"
    }
  ],
  "transactionHash": "0x129f522023af7a237112cf7420bdc6079c903e55607e2328a7fa834c5727054e",
  "args": [
    "RetroFunding",
    "uint256 amount",
    {
      "owner": "0x8595e36857743A1C517e00179e6bA6D170DD1F51",
      "allocationToken": "0x0000000000000000000000000000000000000000",
      "distributionToken": "0x0000000000000000000000000000000000000000",
      "maxAmount": "0",
      "metadataURI": "",
      "admins": [],
      "timestamps": []
    }
  ],
  "numDeployments": 1,
  "solcInputHash": "68abb0f96633951c4834d81434b5b092",
  "bytecode": "0x60806040523480156200001157600080fd5b50604051620026d7380380620026d7833981016040819052620000349162000402565b828282336001600160a01b03167f432d5e51ce671e91daae7448ef02fde36fd474baf4f93d31ff4ace1ad9a1a6bd8484846040516200007693929190620005cc565b60405180910390a250506001600a81905554620000a091506000906001600160a01b031662000109565b5060005b600254811015620000ff5760028054620000e99160009184908110620000ce57620000ce620006e0565b6000918252602090912001546001600160a01b031662000109565b5080620000f681620006f6565b915050620000a4565b505050506200071e565b60008281526009602090815260408083206001600160a01b038516845290915281205460ff16620001b25760008381526009602090815260408083206001600160a01b03861684529091529020805460ff19166001179055620001693390565b6001600160a01b0316826001600160a01b0316847f2f8788117e7eff1d82e926ec794901d17c78024a50270940304540a733656f0d60405160405180910390a4506001620001b6565b5060005b92915050565b634e487b7160e01b600052604160045260246000fd5b60405160e081016001600160401b0381118282101715620001f757620001f7620001bc565b60405290565b604051601f8201601f191681016001600160401b0381118282101715620002285762000228620001bc565b604052919050565b60005b838110156200024d57818101518382015260200162000233565b50506000910152565b600082601f8301126200026857600080fd5b81516001600160401b03811115620002845762000284620001bc565b62000299601f8201601f1916602001620001fd565b818152846020838601011115620002af57600080fd5b620002c282602083016020870162000230565b949350505050565b80516001600160a01b0381168114620002e257600080fd5b919050565b60006001600160401b03821115620003035762000303620001bc565b5060051b60200190565b600082601f8301126200031f57600080fd5b81516020620003386200033283620002e7565b620001fd565b82815260059290921b840181019181810190868411156200035857600080fd5b8286015b848110156200037e576200037081620002ca565b83529183019183016200035c565b509695505050505050565b600082601f8301126200039b57600080fd5b81516020620003ae6200033283620002e7565b82815260059290921b84018101918181019086841115620003ce57600080fd5b8286015b848110156200037e5780516001600160401b0381168114620003f45760008081fd5b8352918301918301620003d2565b6000806000606084860312156200041857600080fd5b83516001600160401b03808211156200043057600080fd5b6200043e8783880162000256565b945060208601519150808211156200045557600080fd5b620004638783880162000256565b935060408601519150808211156200047a57600080fd5b9085019060e082880312156200048f57600080fd5b62000499620001d2565b620004a483620002ca565b8152602083015182811115620004b957600080fd5b620004c7898286016200030d565b602083015250620004db60408401620002ca565b6040820152620004ee60608401620002ca565b60608201526080830151608082015260a0830151828111156200051057600080fd5b6200051e8982860162000389565b60a08301525060c0830151828111156200053757600080fd5b620005458982860162000256565b60c0830152508093505050509250925092565b600081518084526200057281602086016020860162000230565b601f01601f19169290920160200192915050565b600081518084526020808501945080840160005b83811015620005c15781516001600160401b0316875295820195908201906001016200059a565b509495945050505050565b606081526000620005e1606083018662000558565b602083820381850152620005f6828762000558565b848103604086015285516001600160a01b0390811682528287015160e084840181905281519084018190529294508301916000906101008601905b80831015620006555784518416825293850193600192909201919085019062000631565b50604089015194506200067360408701866001600160a01b03169052565b606089015194506200069060608701866001600160a01b03169052565b6080890151608087015260a0890151945085810360a0870152620006b5818662000586565b94505050505060c085015182820360c0840152620006d4828262000558565b98975050505050505050565b634e487b7160e01b600052603260045260246000fd5b6000600182016200071757634e487b7160e01b600052601160045260246000fd5b5060010190565b611fa9806200072e6000396000f3fe608060405234801561001057600080fd5b50600436106101425760003560e01c806379b881af116100b8578063ab21f5071161007c578063ab21f507146102b7578063c922da54146102ca578063d547741f146102dd578063eede8aea146102f0578063f2e330d814610303578063f96423561461031657600080fd5b806379b881af1461025357806391d1485414610266578063942e6bcf146102795780639cdd2f9a1461029c578063a217fddf146102af57600080fd5b806336568abe1161010a57806336568abe146101db57806358086775146101ee5780635cf90985146102015780635e5de15114610214578063747ffca21461022757806379502c551461023a57600080fd5b806301ffc9a7146101475780630d17579a1461016f578063248a9ca3146101845780632628fb1c146101b55780632f2ff15d146101c8575b600080fd5b61015a61015536600461162b565b610329565b60405190151581526020015b60405180910390f35b61018261017d366004611758565b610360565b005b6101a76101923660046117cc565b60009081526009602052604090206001015490565b604051908152602001610166565b6101826101c33660046118fb565b61037c565b6101826101d63660046119e9565b610722565b6101826101e93660046119e9565b610747565b6101826101fc366004611758565b61077f565b61018261020f366004611758565b61078a565b610182610222366004611758565b6108e0565b6101826102353660046118fb565b6109cb565b610242610a69565b604051610166959493929190611a5b565b610182610261366004611758565b610b1c565b61015a6102743660046119e9565b610c73565b61028c610287366004611aa1565b610c9e565b6040516101669493929190611ad2565b6101826102aa3660046118fb565b610de5565b6101a7600081565b6101826102c5366004611be6565b6110e1565b6101826102d8366004611758565b61113d565b6101826102eb3660046119e9565b611148565b6101826102fe3660046118fb565b61116d565b610182610311366004611758565b611228565b610182610324366004611758565b6112be565b60006001600160e01b03198216637965db0b60e01b148061035a57506301ffc9a760e01b6001600160e01b03198316145b92915050565b600061036b816112d4565b610376848484611228565b50505050565b8351801580159061038d5750835181145b6103d35760405162461bcd60e51b81526020600482015260126024820152714d69736d617463686564206c656e6774687360701b60448201526064015b60405180910390fd5b60005b8181101561071a576000835182106103fd5760405180602001604052806000815250610418565b83828151811061040f5761040f611d02565b60200260200101515b905060006001600160a01b031687838151811061043757610437611d02565b60200260200101516001600160a01b0316036104915760405162461bcd60e51b8152602060048201526019602482015278526563697069656e74206973207a65726f206164647265737360381b60448201526064016103ca565b60008683815181106104a5576104a5611d02565b602002602001015111801561053a57506040516370a0823160e01b81523060048201526001600160a01b038616906370a0823190602401602060405180830381865afa1580156104f9573d6000803e3d6000fd5b505050506040513d601f19601f8201168201806040525081019061051d9190611d18565b86838151811061052f5761052f611d02565b602002602001015111155b6105905760405162461bcd60e51b815260206004820152602160248201527f416d6f756e74206973207a65726f206f7220657863656564732062616c616e636044820152606560f81b60648201526084016103ca565b6105ce8783815181106105a5576105a5611d02565b60200260200101518784815181106105bf576105bf611d02565b602002602001015187846112e1565b846001600160a01b031663a9059cbb8884815181106105ef576105ef611d02565b602002602001015188858151811061060957610609611d02565b60200260200101516040518363ffffffff1660e01b81526004016106429291906001600160a01b03929092168252602082015260400190565b6020604051808303816000875af1158015610661573d6000803e3d6000fd5b505050506040513d601f19601f820116820180604052508101906106859190611d31565b5086828151811061069857610698611d02565b60200260200101516001600160a01b0316306001600160a01b03167f68179208818f375bd941a067e321c35e8cebc048007cd126acd94625989a7b758885815181106106e6576106e6611d02565b602002602001015188856040516106ff93929190611d53565b60405180910390a3508061071281611d9c565b9150506103d6565b505050505050565b60008281526009602052604090206001015461073d816112d4565b6103768383611359565b6001600160a01b03811633146107705760405163334bd91960e11b815260040160405180910390fd5b61077a82826113ed565b505050565b61077a838383610b1c565b6001600160a01b03831660009081526008602052604081205460ff1660028111156107b7576107b7611abc565b146107d45760405162461bcd60e51b81526004016103ca90611db5565b6001600160a01b0383811660009081526008602052604090205461010090041633146108425760405162461bcd60e51b815260206004820152601760248201527f4d757374206265206f776e657220746f2075706461746500000000000000000060448201526064016103ca565b6001600160a01b03831660009081526008602052604090206001016108678382611e7b565b506001600160a01b038316600090815260086020526040902060020161088d8282611e7b565b50336001600160a01b0316836001600160a01b03167f639b764af06689bf35c6ebc1ae49051aa4b4d3a3d34d5c70bf8626087352e99d84846040516108d3929190611f3b565b60405180910390a3505050565b6001600160a01b038316600090815260086020526040812090815460ff16600281111561090f5761090f611abc565b148061093057506001815460ff16600281111561092e5761092e611abc565b145b6109735760405162461bcd60e51b8152602060048201526014602482015273105b1c9958591e4819195c9959da5cdd195c995960621b60448201526064016103ca565b805460ff1916600217815560405133906001600160a01b038616907f11d876319772a42984e532feb89f8d20206a23ba4b556142b7cdfc277efc8435906109bd9087908790611f3b565b60405180910390a350505050565b60006109d6816112d4565b6109de61145a565b6004546001600160a01b03848116911614610a4c5760405162461bcd60e51b815260206004820152602860248201527f446973747269627574696f6e73206d757374206265206469737472696275746960448201526737b7103a37b5b2b760c11b60648201526084016103ca565b610a588585858561037c565b610a626001600a55565b5050505050565b60018054600354600454600554600780546001600160a01b039586169694861695909316939192610a9990611dfb565b80601f0160208091040260200160405190810160405280929190818152602001828054610ac590611dfb565b8015610b125780601f10610ae757610100808354040283529160200191610b12565b820191906000526020600020905b815481529060010190602001808311610af557829003601f168201915b5050505050905085565b6001600160a01b0383811660009081526008602052604090205461010090041615610b7e5760405162461bcd60e51b8152602060048201526012602482015271105b1c9958591e481c9959da5cdd195c995960721b60448201526064016103ca565b60408051608081018252600080825233602080840191909152828401869052606083018590526001600160a01b0387168252600890529190912081518154829060ff19166001836002811115610bd657610bd6611abc565b0217905550602082015181546001600160a01b0390911661010002610100600160a81b031990911617815560408201516001820190610c159082611e7b565b5060608201516002820190610c2a9082611e7b565b50905050336001600160a01b0316836001600160a01b03167f99202cc5abf24650e7ac53e3a81ff614768dcc7569a245376ed82eb4ce243fca84846040516108d3929190611f3b565b60009182526009602090815260408084206001600160a01b0393909316845291905290205460ff1690565b6008602052600090815260409020805460018201805460ff8316936101009093046001600160a01b0316929190610cd490611dfb565b80601f0160208091040260200160405190810160405280929190818152602001828054610d0090611dfb565b8015610d4d5780601f10610d2257610100808354040283529160200191610d4d565b820191906000526020600020905b815481529060010190602001808311610d3057829003601f168201915b505050505090806002018054610d6290611dfb565b80601f0160208091040260200160405190810160405280929190818152602001828054610d8e90611dfb565b8015610ddb5780601f10610db057610100808354040283529160200191610ddb565b820191906000526020600020905b815481529060010190602001808311610dbe57829003601f168201915b5050505050905084565b83518015801590610df65750835181145b610e375760405162461bcd60e51b81526020600482015260126024820152714d69736d617463686564206c656e6774687360701b60448201526064016103ca565b60005b8181101561071a57600083518210610e615760405180602001604052806000815250610e7c565b838281518110610e7357610e73611d02565b60200260200101515b905060006001600160a01b0316878381518110610e9b57610e9b611d02565b60200260200101516001600160a01b031603610ef55760405162461bcd60e51b8152602060048201526019602482015278526563697069656e74206973207a65726f206164647265737360381b60448201526064016103ca565b6000868381518110610f0957610f09611d02565b602002602001015111610f4f5760405162461bcd60e51b815260206004820152600e60248201526d416d6f756e74206973207a65726f60901b60448201526064016103ca565b610f8d878381518110610f6457610f64611d02565b6020026020010151878481518110610f7e57610f7e611d02565b60200260200101518784611484565b846001600160a01b03166323b872dd33898581518110610faf57610faf611d02565b6020026020010151898681518110610fc957610fc9611d02565b60209081029190910101516040516001600160e01b031960e086901b1681526001600160a01b03938416600482015292909116602483015260448201526064016020604051808303816000875af1158015611028573d6000803e3d6000fd5b505050506040513d601f19601f8201168201806040525081019061104c9190611d31565b5086828151811061105f5761105f611d02565b60200260200101516001600160a01b0316336001600160a01b03167f68179208818f375bd941a067e321c35e8cebc048007cd126acd94625989a7b758885815181106110ad576110ad611d02565b602002602001015188856040516110c693929190611d53565b60405180910390a350806110d981611d9c565b915050610e3a565b82516110ef90600090611359565b5060005b8360200151518110156103765761112a6000801b8560200151838151811061111d5761111d611d02565b6020026020010151611359565b508061113581611d9c565b9150506110f3565b61077a83838361078a565b600082815260096020526040902060010154611163816112d4565b61037683836113ed565b61117561145a565b6003546001600160a01b038381169116148061119e57506004546001600160a01b038381169116145b611212576040805162461bcd60e51b81526020600482015260248101919091527f416c6c6f636174696f6e7320746f2070726f6a65637473206d7573742062652060448201527f616c6c6f636174696f6e206f7220646973747269627574696f6e20746f6b656e60648201526084016103ca565b61121e84848484610de5565b6103766001600a55565b6001600160a01b038316600090815260086020526040812090815460ff16600281111561125757611257611abc565b146112745760405162461bcd60e51b81526004016103ca90611db5565b805460ff1916600117815560405133906001600160a01b038616907f07597d52fbe13ba7ca9294f77eecd20c5d40bcd8752753651f416e64a0f7d77c906109bd9087908790611f3b565b60006112c9816112d4565b6103768484846108e0565b6112de81336115ee565b50565b60016001600160a01b03851660009081526008602052604090205460ff16600281111561131057611310611abc565b146103765760405162461bcd60e51b8152602060048201526019602482015278149958da5c1a595b9d081a5cc81b9bdd08185c1c1c9bdd9959603a1b60448201526064016103ca565b60006113658383610c73565b6113e55760008381526009602090815260408083206001600160a01b03861684529091529020805460ff1916600117905561139d3390565b6001600160a01b0316826001600160a01b0316847f2f8788117e7eff1d82e926ec794901d17c78024a50270940304540a733656f0d60405160405180910390a450600161035a565b50600061035a565b60006113f98383610c73565b156113e55760008381526009602090815260408083206001600160a01b0386168085529252808320805460ff1916905551339286917ff6391f5c32d9c69d2a47ea670b442974b53935d1edc7fd64eb21e047a839171b9190a450600161035a565b6002600a540361147d57604051633ee5aeb560e01b815260040160405180910390fd5b6002600a55565b6001600160a01b0384163014806114c7575060016001600160a01b03851660009081526008602052604090205460ff1660028111156114c5576114c5611abc565b145b61150f5760405162461bcd60e51b8152602060048201526019602482015278149958da5c1a595b9d081a5cc81b9bdd08185c1c1c9bdd9959603a1b60448201526064016103ca565b6004546001600160a01b0390811690831603610376576040516370a0823160e01b81523060048201526000906001600160a01b038416906370a0823190602401602060405180830381865afa15801561156c573d6000803e3d6000fd5b505050506040513d601f19601f820116820180604052508101906115909190611d18565b60055490915015806115ad57506005546115aa8286611f60565b11155b610a625760405162461bcd60e51b815260206004820152601260248201527113585e08185b5bdd5b9d081c995858da195960721b60448201526064016103ca565b6115f88282610c73565b6116275760405163e2517d3f60e01b81526001600160a01b0382166004820152602481018390526044016103ca565b5050565b60006020828403121561163d57600080fd5b81356001600160e01b03198116811461165557600080fd5b9392505050565b80356001600160a01b038116811461167357600080fd5b919050565b634e487b7160e01b600052604160045260246000fd5b60405160e0810167ffffffffffffffff811182821017156116b1576116b1611678565b60405290565b604051601f8201601f1916810167ffffffffffffffff811182821017156116e0576116e0611678565b604052919050565b600082601f8301126116f957600080fd5b813567ffffffffffffffff81111561171357611713611678565b611726601f8201601f19166020016116b7565b81815284602083860101111561173b57600080fd5b816020850160208301376000918101602001919091529392505050565b60008060006060848603121561176d57600080fd5b6117768461165c565b9250602084013567ffffffffffffffff8082111561179357600080fd5b61179f878388016116e8565b935060408601359150808211156117b557600080fd5b506117c2868287016116e8565b9150509250925092565b6000602082840312156117de57600080fd5b5035919050565b600067ffffffffffffffff8211156117ff576117ff611678565b5060051b60200190565b600082601f83011261181a57600080fd5b8135602061182f61182a836117e5565b6116b7565b82815260059290921b8401810191818101908684111561184e57600080fd5b8286015b84811015611870576118638161165c565b8352918301918301611852565b509695505050505050565b600082601f83011261188c57600080fd5b8135602061189c61182a836117e5565b82815260059290921b840181019181810190868411156118bb57600080fd5b8286015b8481101561187057803567ffffffffffffffff8111156118df5760008081fd5b6118ed8986838b01016116e8565b8452509183019183016118bf565b6000806000806080858703121561191157600080fd5b843567ffffffffffffffff8082111561192957600080fd5b61193588838901611809565b955060209150818701358181111561194c57600080fd5b8701601f8101891361195d57600080fd5b803561196b61182a826117e5565b81815260059190911b8201840190848101908b83111561198a57600080fd5b928501925b828410156119a85783358252928501929085019061198f565b97506119ba925050506040880161165c565b935060608701359150808211156119d057600080fd5b506119dd8782880161187b565b91505092959194509250565b600080604083850312156119fc57600080fd5b82359150611a0c6020840161165c565b90509250929050565b6000815180845260005b81811015611a3b57602081850181015186830182015201611a1f565b506000602082860101526020601f19601f83011685010191505092915050565b6001600160a01b0386811682528581166020830152841660408201526060810183905260a060808201819052600090611a9690830184611a15565b979650505050505050565b600060208284031215611ab357600080fd5b6116558261165c565b634e487b7160e01b600052602160045260246000fd5b600060038610611af257634e487b7160e01b600052602160045260246000fd5b8582526001600160a01b0385166020830152608060408301819052611b1990830185611a15565b8281036060840152611a968185611a15565b600082601f830112611b3c57600080fd5b81356020611b4c61182a836117e5565b82815260059290921b84018101918181019086841115611b6b57600080fd5b8286015b8481101561187057803567ffffffffffffffff81168114611b905760008081fd5b8352918301918301611b6f565b60008083601f840112611baf57600080fd5b50813567ffffffffffffffff811115611bc757600080fd5b602083019150836020828501011115611bdf57600080fd5b9250929050565b600080600060408486031215611bfb57600080fd5b833567ffffffffffffffff80821115611c1357600080fd5b9085019060e08288031215611c2757600080fd5b611c2f61168e565b611c388361165c565b8152602083013582811115611c4c57600080fd5b611c5889828601611809565b602083015250611c6a6040840161165c565b6040820152611c7b6060840161165c565b60608201526080830135608082015260a083013582811115611c9c57600080fd5b611ca889828601611b2b565b60a08301525060c083013582811115611cc057600080fd5b611ccc898286016116e8565b60c08301525094506020860135915080821115611ce857600080fd5b50611cf586828701611b9d565b9497909650939450505050565b634e487b7160e01b600052603260045260246000fd5b600060208284031215611d2a57600080fd5b5051919050565b600060208284031215611d4357600080fd5b8151801515811461165557600080fd5b8381526001600160a01b0383166020820152606060408201819052600090611d7d90830184611a15565b95945050505050565b634e487b7160e01b600052601160045260246000fd5b600060018201611dae57611dae611d86565b5060010190565b60208082526026908201527f416c726561647920617070726f766564206f72206e6f742072656769737465726040820152651959081e595d60d21b606082015260800190565b600181811c90821680611e0f57607f821691505b602082108103611e2f57634e487b7160e01b600052602260045260246000fd5b50919050565b601f82111561077a57600081815260208120601f850160051c81016020861015611e5c5750805b601f850160051c820191505b8181101561071a57828155600101611e68565b815167ffffffffffffffff811115611e9557611e95611678565b611ea981611ea38454611dfb565b84611e35565b602080601f831160018114611ede5760008415611ec65750858301515b600019600386901b1c1916600185901b17855561071a565b600085815260208120601f198616915b82811015611f0d57888601518255948401946001909101908401611eee565b5085821015611f2b5787850151600019600388901b60f8161c191681555b5050505050600190811b01905550565b604081526000611f4e6040830185611a15565b8281036020840152611d7d8185611a15565b8082018082111561035a5761035a611d8656fea26469706673582212207416dae1412c0fea3d169413f3b00f142630914678c3a66a9de5cb0a4055d8a964736f6c63430008140033",
  "devdoc": {
    "errors": {
      "AccessControlBadConfirmation()": [
        {
          "details": "The caller of a function is not the expected one. NOTE: Don't confuse with {AccessControlUnauthorizedAccount}."
        }
      ],
      "AccessControlUnauthorizedAccount(address,bytes32)": [
        {
          "details": "The `account` is missing a role."
        }
      ],
      "ReentrancyGuardReentrantCall()": [
        {
          "details": "Unauthorized reentrant call."
        }
      ]
    },
    "events": {
      "RoleAdminChanged(bytes32,bytes32,bytes32)": {
        "details": "Emitted when `newAdminRole` is set as ``role``'s admin role, replacing `previousAdminRole` `DEFAULT_ADMIN_ROLE` is the starting admin for all roles, despite {RoleAdminChanged} not being emitted signaling this."
      },
      "RoleGranted(bytes32,address,address)": {
        "details": "Emitted when `account` is granted `role`. `sender` is the account that originated the contract call, an admin role bearer except when using {AccessControl-_setupRole}."
      },
      "RoleRevoked(bytes32,address,address)": {
        "details": "Emitted when `account` is revoked `role`. `sender` is the account that originated the contract call:   - if using `revokeRole`, it is the admin role bearer   - if using `renounceRole`, it is the role bearer (i.e. `account`)"
      }
    },
    "kind": "dev",
    "methods": {
      "getRoleAdmin(bytes32)": {
        "details": "Returns the admin role that controls `role`. See {grantRole} and {revokeRole}. To change a role's admin, use {_setRoleAdmin}."
      },
      "grantRole(bytes32,address)": {
        "details": "Grants `role` to `account`. If `account` had not been already granted `role`, emits a {RoleGranted} event. Requirements: - the caller must have ``role``'s admin role. May emit a {RoleGranted} event."
      },
      "hasRole(bytes32,address)": {
        "details": "Returns `true` if `account` has been granted `role`."
      },
      "renounceRole(bytes32,address)": {
        "details": "Revokes `role` from the calling account. Roles are often managed via {grantRole} and {revokeRole}: this function's purpose is to provide a mechanism for accounts to lose their privileges if they are compromised (such as when a trusted device is misplaced). If the calling account had been revoked `role`, emits a {RoleRevoked} event. Requirements: - the caller must be `callerConfirmation`. May emit a {RoleRevoked} event."
      },
      "revokeRole(bytes32,address)": {
        "details": "Revokes `role` from `account`. If `account` had been granted `role`, emits a {RoleRevoked} event. Requirements: - the caller must have ``role``'s admin role. May emit a {RoleRevoked} event."
      },
      "supportsInterface(bytes4)": {
        "details": "See {IERC165-supportsInterface}."
      }
    },
    "version": 1
  },
  "userdoc": {
    "kind": "user",
    "methods": {},
    "version": 1
  },
  "storageLayout": {
    "storage": [
      {
        "astId": 1421,
        "contract": "contracts/strategies/RetroFunding.sol:RetroFunding",
        "label": "_initialized",
        "offset": 0,
        "slot": "0",
        "type": "t_bool"
      },
      {
        "astId": 1424,
        "contract": "contracts/strategies/RetroFunding.sol:RetroFunding",
        "label": "config",
        "offset": 0,
        "slot": "1",
        "type": "t_struct(PoolConfig)1276_storage"
      },
      {
        "astId": 1429,
        "contract": "contracts/strategies/RetroFunding.sol:RetroFunding",
        "label": "registrations",
        "offset": 0,
        "slot": "8",
        "type": "t_mapping(t_address,t_struct(Registration)1290_storage)"
      },
      {
        "astId": 26,
        "contract": "contracts/strategies/RetroFunding.sol:RetroFunding",
        "label": "_roles",
        "offset": 0,
        "slot": "9",
        "type": "t_mapping(t_bytes32,t_struct(RoleData)21_storage)"
      },
      {
        "astId": 1161,
        "contract": "contracts/strategies/RetroFunding.sol:RetroFunding",
        "label": "_status",
        "offset": 0,
        "slot": "10",
        "type": "t_uint256"
      }
    ],
    "types": {
      "t_address": {
        "encoding": "inplace",
        "label": "address",
        "numberOfBytes": "20"
      },
      "t_array(t_address)dyn_storage": {
        "base": "t_address",
        "encoding": "dynamic_array",
        "label": "address[]",
        "numberOfBytes": "32"
      },
      "t_array(t_uint64)dyn_storage": {
        "base": "t_uint64",
        "encoding": "dynamic_array",
        "label": "uint64[]",
        "numberOfBytes": "32"
      },
      "t_bool": {
        "encoding": "inplace",
        "label": "bool",
        "numberOfBytes": "1"
      },
      "t_bytes32": {
        "encoding": "inplace",
        "label": "bytes32",
        "numberOfBytes": "32"
      },
      "t_bytes_storage": {
        "encoding": "bytes",
        "label": "bytes",
        "numberOfBytes": "32"
      },
      "t_enum(Status)1280": {
        "encoding": "inplace",
        "label": "enum IPool.Status",
        "numberOfBytes": "1"
      },
      "t_mapping(t_address,t_bool)": {
        "encoding": "mapping",
        "key": "t_address",
        "label": "mapping(address => bool)",
        "numberOfBytes": "32",
        "value": "t_bool"
      },
      "t_mapping(t_address,t_struct(Registration)1290_storage)": {
        "encoding": "mapping",
        "key": "t_address",
        "label": "mapping(address => struct IPool.Registration)",
        "numberOfBytes": "32",
        "value": "t_struct(Registration)1290_storage"
      },
      "t_mapping(t_bytes32,t_struct(RoleData)21_storage)": {
        "encoding": "mapping",
        "key": "t_bytes32",
        "label": "mapping(bytes32 => struct AccessControl.RoleData)",
        "numberOfBytes": "32",
        "value": "t_struct(RoleData)21_storage"
      },
      "t_string_storage": {
        "encoding": "bytes",
        "label": "string",
        "numberOfBytes": "32"
      },
      "t_struct(PoolConfig)1276_storage": {
        "encoding": "inplace",
        "label": "struct PoolConfig",
        "members": [
          {
            "astId": 1261,
            "contract": "contracts/strategies/RetroFunding.sol:RetroFunding",
            "label": "owner",
            "offset": 0,
            "slot": "0",
            "type": "t_address"
          },
          {
            "astId": 1264,
            "contract": "contracts/strategies/RetroFunding.sol:RetroFunding",
            "label": "admins",
            "offset": 0,
            "slot": "1",
            "type": "t_array(t_address)dyn_storage"
          },
          {
            "astId": 1266,
            "contract": "contracts/strategies/RetroFunding.sol:RetroFunding",
            "label": "allocationToken",
            "offset": 0,
            "slot": "2",
            "type": "t_address"
          },
          {
            "astId": 1268,
            "contract": "contracts/strategies/RetroFunding.sol:RetroFunding",
            "label": "distributionToken",
            "offset": 0,
            "slot": "3",
            "type": "t_address"
          },
          {
            "astId": 1270,
            "contract": "contracts/strategies/RetroFunding.sol:RetroFunding",
            "label": "maxAmount",
            "offset": 0,
            "slot": "4",
            "type": "t_uint256"
          },
          {
            "astId": 1273,
            "contract": "contracts/strategies/RetroFunding.sol:RetroFunding",
            "label": "timestamps",
            "offset": 0,
            "slot": "5",
            "type": "t_array(t_uint64)dyn_storage"
          },
          {
            "astId": 1275,
            "contract": "contracts/strategies/RetroFunding.sol:RetroFunding",
            "label": "metadataURI",
            "offset": 0,
            "slot": "6",
            "type": "t_string_storage"
          }
        ],
        "numberOfBytes": "224"
      },
      "t_struct(Registration)1290_storage": {
        "encoding": "inplace",
        "label": "struct IPool.Registration",
        "members": [
          {
            "astId": 1283,
            "contract": "contracts/strategies/RetroFunding.sol:RetroFunding",
            "label": "status",
            "offset": 0,
            "slot": "0",
            "type": "t_enum(Status)1280"
          },
          {
            "astId": 1285,
            "contract": "contracts/strategies/RetroFunding.sol:RetroFunding",
            "label": "owner",
            "offset": 1,
            "slot": "0",
            "type": "t_address"
          },
          {
            "astId": 1287,
            "contract": "contracts/strategies/RetroFunding.sol:RetroFunding",
            "label": "metadataURI",
            "offset": 0,
            "slot": "1",
            "type": "t_string_storage"
          },
          {
            "astId": 1289,
            "contract": "contracts/strategies/RetroFunding.sol:RetroFunding",
            "label": "data",
            "offset": 0,
            "slot": "2",
            "type": "t_bytes_storage"
          }
        ],
        "numberOfBytes": "96"
      },
      "t_struct(RoleData)21_storage": {
        "encoding": "inplace",
        "label": "struct AccessControl.RoleData",
        "members": [
          {
            "astId": 18,
            "contract": "contracts/strategies/RetroFunding.sol:RetroFunding",
            "label": "hasRole",
            "offset": 0,
            "slot": "0",
            "type": "t_mapping(t_address,t_bool)"
          },
          {
            "astId": 20,
            "contract": "contracts/strategies/RetroFunding.sol:RetroFunding",
            "label": "adminRole",
            "offset": 0,
            "slot": "1",
            "type": "t_bytes32"
          }
        ],
        "numberOfBytes": "64"
      },
      "t_uint256": {
        "encoding": "inplace",
        "label": "uint256",
        "numberOfBytes": "32"
      },
      "t_uint64": {
        "encoding": "inplace",
        "label": "uint64",
        "numberOfBytes": "8"
      }
    }
  }
}