{
  "address": "0x5928D73afFf833a134Ccf2d9A69EcB71B314E663",
  "abi": [
    {
      "inputs": [
        {
          "internalType": "address",
          "name": "owner",
          "type": "address"
        }
      ],
      "stateMutability": "nonpayable",
      "type": "constructor"
    },
    {
      "inputs": [
        {
          "internalType": "address",
          "name": "target",
          "type": "address"
        }
      ],
      "name": "AddressEmptyCode",
      "type": "error"
    },
    {
      "inputs": [
        {
          "internalType": "address",
          "name": "account",
          "type": "address"
        }
      ],
      "name": "AddressInsufficientBalance",
      "type": "error"
    },
    {
      "inputs": [],
      "name": "FailedInnerCall",
      "type": "error"
    },
    {
      "inputs": [
        {
          "internalType": "address",
          "name": "owner",
          "type": "address"
        }
      ],
      "name": "OwnableInvalidOwner",
      "type": "error"
    },
    {
      "inputs": [
        {
          "internalType": "address",
          "name": "account",
          "type": "address"
        }
      ],
      "name": "OwnableUnauthorizedAccount",
      "type": "error"
    },
    {
      "inputs": [
        {
          "internalType": "address",
          "name": "token",
          "type": "address"
        }
      ],
      "name": "SafeERC20FailedOperation",
      "type": "error"
    },
    {
      "anonymous": false,
      "inputs": [
        {
          "indexed": true,
          "internalType": "address",
          "name": "from",
          "type": "address"
        },
        {
          "indexed": true,
          "internalType": "address",
          "name": "to",
          "type": "address"
        },
        {
          "indexed": false,
          "internalType": "uint256",
          "name": "amount",
          "type": "uint256"
        },
        {
          "indexed": false,
          "internalType": "address",
          "name": "token",
          "type": "address"
        },
        {
          "indexed": false,
          "internalType": "bytes",
          "name": "data",
          "type": "bytes"
        }
      ],
      "name": "Allocate",
      "type": "event"
    },
    {
      "anonymous": false,
      "inputs": [
        {
          "indexed": true,
          "internalType": "address",
          "name": "project",
          "type": "address"
        },
        {
          "indexed": true,
          "internalType": "uint256",
          "name": "index",
          "type": "uint256"
        },
        {
          "indexed": false,
          "internalType": "string",
          "name": "metadataURI",
          "type": "string"
        },
        {
          "indexed": false,
          "internalType": "bytes",
          "name": "data",
          "type": "bytes"
        }
      ],
      "name": "Approve",
      "type": "event"
    },
    {
      "anonymous": false,
      "inputs": [
        {
          "indexed": false,
          "internalType": "string",
          "name": "strategyName",
          "type": "string"
        }
      ],
      "name": "Initialize",
      "type": "event"
    },
    {
      "anonymous": false,
      "inputs": [
        {
          "indexed": true,
          "internalType": "address",
          "name": "previousOwner",
          "type": "address"
        },
        {
          "indexed": true,
          "internalType": "address",
          "name": "newOwner",
          "type": "address"
        }
      ],
      "name": "OwnershipTransferred",
      "type": "event"
    },
    {
      "anonymous": false,
      "inputs": [
        {
          "indexed": true,
          "internalType": "address",
          "name": "project",
          "type": "address"
        },
        {
          "indexed": true,
          "internalType": "uint256",
          "name": "index",
          "type": "uint256"
        },
        {
          "indexed": false,
          "internalType": "string",
          "name": "metadataURI",
          "type": "string"
        },
        {
          "indexed": false,
          "internalType": "bytes",
          "name": "data",
          "type": "bytes"
        }
      ],
      "name": "Register",
      "type": "event"
    },
    {
      "inputs": [
        {
          "internalType": "address[]",
          "name": "recipients",
          "type": "address[]"
        },
        {
          "internalType": "uint256[]",
          "name": "amounts",
          "type": "uint256[]"
        },
        {
          "internalType": "address",
          "name": "token",
          "type": "address"
        },
        {
          "internalType": "bytes[]",
          "name": "data",
          "type": "bytes[]"
        }
      ],
      "name": "allocate",
      "outputs": [],
      "stateMutability": "nonpayable",
      "type": "function"
    },
    {
      "inputs": [
        {
          "internalType": "address",
          "name": "project",
          "type": "address"
        },
        {
          "internalType": "uint256",
          "name": "index",
          "type": "uint256"
        },
        {
          "internalType": "string",
          "name": "metadataURI",
          "type": "string"
        },
        {
          "internalType": "bytes",
          "name": "data",
          "type": "bytes"
        }
      ],
      "name": "approve",
      "outputs": [],
      "stateMutability": "nonpayable",
      "type": "function"
    },
    {
      "inputs": [
        {
          "internalType": "address[]",
          "name": "recipients",
          "type": "address[]"
        },
        {
          "internalType": "uint256[]",
          "name": "amounts",
          "type": "uint256[]"
        },
        {
          "internalType": "address",
          "name": "token",
          "type": "address"
        },
        {
          "internalType": "bytes[]",
          "name": "data",
          "type": "bytes[]"
        }
      ],
      "name": "distribute",
      "outputs": [],
      "stateMutability": "nonpayable",
      "type": "function"
    },
    {
      "inputs": [],
      "name": "owner",
      "outputs": [
        {
          "internalType": "address",
          "name": "",
          "type": "address"
        }
      ],
      "stateMutability": "view",
      "type": "function"
    },
    {
      "inputs": [
        {
          "internalType": "address",
          "name": "",
          "type": "address"
        },
        {
          "internalType": "uint256",
          "name": "",
          "type": "uint256"
        }
      ],
      "name": "projects",
      "outputs": [
        {
          "internalType": "enum IRegistry.Status",
          "name": "status",
          "type": "uint8"
        },
        {
          "internalType": "bytes",
          "name": "data",
          "type": "bytes"
        }
      ],
      "stateMutability": "view",
      "type": "function"
    },
    {
      "inputs": [
        {
          "internalType": "address",
          "name": "project",
          "type": "address"
        },
        {
          "internalType": "string",
          "name": "metadataURI",
          "type": "string"
        },
        {
          "internalType": "bytes",
          "name": "data",
          "type": "bytes"
        }
      ],
      "name": "register",
      "outputs": [],
      "stateMutability": "nonpayable",
      "type": "function"
    },
    {
      "inputs": [],
      "name": "renounceOwnership",
      "outputs": [],
      "stateMutability": "nonpayable",
      "type": "function"
    },
    {
      "inputs": [],
      "name": "strategyName",
      "outputs": [
        {
          "internalType": "string",
          "name": "",
          "type": "string"
        }
      ],
      "stateMutability": "view",
      "type": "function"
    },
    {
      "inputs": [
        {
          "internalType": "address",
          "name": "newOwner",
          "type": "address"
        }
      ],
      "name": "transferOwnership",
      "outputs": [],
      "stateMutability": "nonpayable",
      "type": "function"
    },
    {
      "stateMutability": "payable",
      "type": "receive"
    }
  ],
  "transactionHash": "0x81114db97e7e209071973e2623ce6244f85d8159ce2f58e699f6e93d85d75ca4",
  "args": [
    "0xf39Fd6e51aad88F6F4ce6aB8827279cffFb92266"
  ],
  "numDeployments": 1,
  "solcInputHash": "eaf39a199873f331cb00277b5ca9c331",
  "bytecode": "0x60806040523480156200001157600080fd5b506040516200167538038062001675833981016040819052620000349162000137565b60408051808201909152600c81526b53696d706c654772616e747360a01b6020820152819060006200006782826200020e565b507f65b338e03a4156bd65a273672217a9d2d0e0594ee4f689f7a4be8ab5e91fd30160006040516200009a9190620002da565b60405180910390a1506001600160a01b038116620000d257604051631e4fbdf760e01b81526000600482015260240160405180910390fd5b620000dd81620000e5565b50506200036d565b600380546001600160a01b038381166001600160a01b0319831681179093556040519116919082907f8be0079c531659141344cd1fd0a4f28419497f9722a3daafe3b4186f6b6457e090600090a35050565b6000602082840312156200014a57600080fd5b81516001600160a01b03811681146200016257600080fd5b9392505050565b634e487b7160e01b600052604160045260246000fd5b600181811c908216806200019457607f821691505b602082108103620001b557634e487b7160e01b600052602260045260246000fd5b50919050565b601f8211156200020957600081815260208120601f850160051c81016020861015620001e45750805b601f850160051c820191505b818110156200020557828155600101620001f0565b5050505b505050565b81516001600160401b038111156200022a576200022a62000169565b62000242816200023b84546200017f565b84620001bb565b602080601f8311600181146200027a5760008415620002615750858301515b600019600386901b1c1916600185901b17855562000205565b600085815260208120601f198616915b82811015620002ab578886015182559484019460019091019084016200028a565b5085821015620002ca5787850151600019600388901b60f8161c191681555b5050505050600190811b01905550565b6000602080835260008454620002f0816200017f565b808487015260406001808416600081146200031457600181146200032f576200035f565b60ff1985168984015283151560051b8901830195506200035f565b896000528660002060005b85811015620003575781548b82018601529083019088016200033a565b8a0184019650505b509398975050505050505050565b6112f8806200037d6000396000f3fe60806040526004361061008a5760003560e01c80638da5cb5b116100595780638da5cb5b146101245780639336fd661461014c578063e173ad251461016c578063eede8aea1461018e578063f2fde38b146101ae57600080fd5b80635808677514610096578063715018a6146100b8578063747ffca2146100cd5780637ecdd3c5146100ed57600080fd5b3661009157005b600080fd5b3480156100a257600080fd5b506100b66100b1366004610cc0565b6101ce565b005b3480156100c457600080fd5b506100b6610209565b3480156100d957600080fd5b506100b66100e8366004610e43565b61021d565b3480156100f957600080fd5b5061010d610108366004610f38565b610250565b60405161011b929190610fc8565b60405180910390f35b34801561013057600080fd5b506003546040516001600160a01b03909116815260200161011b565b34801561015857600080fd5b506100b6610167366004611007565b610302565b34801561017857600080fd5b5061018161030e565b60405161011b9190611079565b34801561019a57600080fd5b506100b66101a9366004610e43565b61039c565b3480156101ba57600080fd5b506100b66101c936600461108c565b6103c9565b6101d983838361040c565b610204836000604051806020016040528060008152506040518060200160405280600081525061057a565b505050565b6102116106c5565b61021b60006106f2565b565b61024a848484847f67f5ee3ea5f89bb62c6dbf9e6a46fac86b15fc7c224cb0f88a13f89aeded9e1f610744565b50505050565b600160208181526000938452604080852090915291835291208054918101805460ff9093169261027f906110a7565b80601f01602080910402602001604051908101604052809291908181526020018280546102ab906110a7565b80156102f85780601f106102cd576101008083540402835291602001916102f8565b820191906000526020600020905b8154815290600101906020018083116102db57829003601f168201915b5050505050905082565b61024a8484848461057a565b6000805461031b906110a7565b80601f0160208091040260200160405190810160405280929190818152602001828054610347906110a7565b80156103945780601f1061036957610100808354040283529160200191610394565b820191906000526020600020905b81548152906001019060200180831161037757829003601f168201915b505050505081565b61024a848484847f7c94e4fcbbb52184978683d4364d66cbc2953decfc5350c143ce1e932e65f52b610744565b6103d16106c5565b6001600160a01b03811661040057604051631e4fbdf760e01b8152600060048201526024015b60405180910390fd5b610409816106f2565b50565b6001600160a01b038316600090815260026020526040812080549082610431836110e1565b90915550905060006001600160a01b03851660009081526001602081815260408084208685529091529091205460ff169081111561047157610471610f62565b146104be5760405162461bcd60e51b815260206004820152601a60248201527f50726f6a65637420616c7265616479207265676973746572656400000000000060448201526064016103f7565b604080518082018252600080825260208083018690526001600160a01b0388168252600180825284832086845290915292902081518154929391929091839160ff191690838181111561051357610513610f62565b02179055506020820151600182019061052c9082611156565b5090505080846001600160a01b03167fa9352a56e4f658b5bfde20dc47a4d4dcd3b3fd8f8c142914656085f959965295858560405161056c929190611216565b60405180910390a350505050565b6001600160a01b038416600090815260016020818152604080842087855290915282205460ff16908111156105b1576105b1610f62565b146106155760405162461bcd60e51b815260206004820152602e60248201527f50726f6a65637420616c726561647920617070726f766564206f72206e6f742060448201526d1c9959da5cdd195c9959081e595d60921b60648201526084016103f7565b604080518082018252600180825260208083018590526001600160a01b03881660009081528282528481208882529091529290922081518154929391929091839160ff191690838181111561066c5761066c610f62565b0217905550602082015160018201906106859082611156565b5090505082846001600160a01b03167f0ff3b1100e23816c3a8d1bdd54fd87e9525b6dc617a55d5b64dc25229e75f929848460405161056c929190611216565b6003546001600160a01b0316331461021b5760405163118cdaa760e01b81523360048201526024016103f7565b600380546001600160a01b038381166001600160a01b0319831681179093556040519116919082907f8be0079c531659141344cd1fd0a4f28419497f9722a3daafe3b4186f6b6457e090600090a35050565b845180158015906107555750845181145b6107965760405162461bcd60e51b81526020600482015260126024820152714d69736d617463686564206c656e6774687360701b60448201526064016103f7565b60005b818110156108fb576000845182106107c057604051806020016040528060008152506107db565b8482815181106107d2576107d2611244565b60200260200101515b90507f7c94e4fcbbb52184978683d4364d66cbc2953decfc5350c143ce1e932e65f52b84036108475761084288838151811061081957610819611244565b602002602001015188848151811061083357610833611244565b60200260200101518884610904565b6108e8565b7f67f5ee3ea5f89bb62c6dbf9e6a46fac86b15fc7c224cb0f88a13f89aeded9e1f84036108ac5761084288838151811061088357610883611244565b602002602001015188848151811061089d5761089d611244565b60200260200101518884610960565b60405162461bcd60e51b815260206004820152601160248201527024b73b30b634b21037b832b930ba34b7b760791b60448201526064016103f7565b50806108f3816110e1565b915050610799565b50505050505050565b6109196001600160a01b0383163386866109bb565b6001600160a01b038416336001600160a01b03167f68179208818f375bd941a067e321c35e8cebc048007cd126acd94625989a7b7585858560405161056c9392919061125a565b6109746001600160a01b0383168585610a22565b836001600160a01b0316306001600160a01b03167f68179208818f375bd941a067e321c35e8cebc048007cd126acd94625989a7b7585858560405161056c9392919061125a565b6040516001600160a01b03848116602483015283811660448301526064820183905261024a9186918216906323b872dd906084015b604051602081830303815290604052915060e01b6020820180516001600160e01b038381831617835250505050610a53565b6040516001600160a01b0383811660248301526044820183905261020491859182169063a9059cbb906064016109f0565b6000610a686001600160a01b03841683610ab6565b90508051600014158015610a8d575080806020019051810190610a8b9190611284565b155b1561020457604051635274afe760e01b81526001600160a01b03841660048201526024016103f7565b6060610ac483836000610acb565b9392505050565b606081471015610af05760405163cd78605960e01b81523060048201526024016103f7565b600080856001600160a01b03168486604051610b0c91906112a6565b60006040518083038185875af1925050503d8060008114610b49576040519150601f19603f3d011682016040523d82523d6000602084013e610b4e565b606091505b5091509150610b5e868383610b68565b9695505050505050565b606082610b7d57610b7882610bc4565b610ac4565b8151158015610b9457506001600160a01b0384163b155b15610bbd57604051639996b31560e01b81526001600160a01b03851660048201526024016103f7565b5080610ac4565b805115610bd45780518082602001fd5b604051630a12f52160e11b815260040160405180910390fd5b80356001600160a01b0381168114610c0457600080fd5b919050565b634e487b7160e01b600052604160045260246000fd5b604051601f8201601f1916810167ffffffffffffffff81118282101715610c4857610c48610c09565b604052919050565b600082601f830112610c6157600080fd5b813567ffffffffffffffff811115610c7b57610c7b610c09565b610c8e601f8201601f1916602001610c1f565b818152846020838601011115610ca357600080fd5b816020850160208301376000918101602001919091529392505050565b600080600060608486031215610cd557600080fd5b610cde84610bed565b9250602084013567ffffffffffffffff80821115610cfb57600080fd5b610d0787838801610c50565b93506040860135915080821115610d1d57600080fd5b50610d2a86828701610c50565b9150509250925092565b600067ffffffffffffffff821115610d4e57610d4e610c09565b5060051b60200190565b600082601f830112610d6957600080fd5b81356020610d7e610d7983610d34565b610c1f565b82815260059290921b84018101918181019086841115610d9d57600080fd5b8286015b84811015610db85780358352918301918301610da1565b509695505050505050565b600082601f830112610dd457600080fd5b81356020610de4610d7983610d34565b82815260059290921b84018101918181019086841115610e0357600080fd5b8286015b84811015610db857803567ffffffffffffffff811115610e275760008081fd5b610e358986838b0101610c50565b845250918301918301610e07565b60008060008060808587031215610e5957600080fd5b843567ffffffffffffffff80821115610e7157600080fd5b818701915087601f830112610e8557600080fd5b81356020610e95610d7983610d34565b82815260059290921b8401810191818101908b841115610eb457600080fd5b948201945b83861015610ed957610eca86610bed565b82529482019490820190610eb9565b98505088013592505080821115610eef57600080fd5b610efb88838901610d58565b9450610f0960408801610bed565b93506060870135915080821115610f1f57600080fd5b50610f2c87828801610dc3565b91505092959194509250565b60008060408385031215610f4b57600080fd5b610f5483610bed565b946020939093013593505050565b634e487b7160e01b600052602160045260246000fd5b60005b83811015610f93578181015183820152602001610f7b565b50506000910152565b60008151808452610fb4816020860160208601610f78565b601f01601f19169290920160200192915050565b600060028410610fe857634e487b7160e01b600052602160045260246000fd5b83825260406020830152610fff6040830184610f9c565b949350505050565b6000806000806080858703121561101d57600080fd5b61102685610bed565b935060208501359250604085013567ffffffffffffffff8082111561104a57600080fd5b61105688838901610c50565b9350606087013591508082111561106c57600080fd5b50610f2c87828801610c50565b602081526000610ac46020830184610f9c565b60006020828403121561109e57600080fd5b610ac482610bed565b600181811c908216806110bb57607f821691505b6020821081036110db57634e487b7160e01b600052602260045260246000fd5b50919050565b60006001820161110157634e487b7160e01b600052601160045260246000fd5b5060010190565b601f82111561020457600081815260208120601f850160051c8101602086101561112f5750805b601f850160051c820191505b8181101561114e5782815560010161113b565b505050505050565b815167ffffffffffffffff81111561117057611170610c09565b6111848161117e84546110a7565b84611108565b602080601f8311600181146111b957600084156111a15750858301515b600019600386901b1c1916600185901b17855561114e565b600085815260208120601f198616915b828110156111e8578886015182559484019460019091019084016111c9565b50858210156112065787850151600019600388901b60f8161c191681555b5050505050600190811b01905550565b6040815260006112296040830185610f9c565b828103602084015261123b8185610f9c565b95945050505050565b634e487b7160e01b600052603260045260246000fd5b8381526001600160a01b038316602082015260606040820181905260009061123b90830184610f9c565b60006020828403121561129657600080fd5b81518015158114610ac457600080fd5b600082516112b8818460208701610f78565b919091019291505056fea2646970667358221220cef3b70f7acbaf4dd26f78740297a742e6b45e6f1bdaa1e38f27c31e6ace297064736f6c63430008140033",
  "devdoc": {
    "author": "AlloCapital",
    "errors": {
      "AddressEmptyCode(address)": [
        {
          "details": "There's no code at `target` (it is not a contract)."
        }
      ],
      "AddressInsufficientBalance(address)": [
        {
          "details": "The ETH balance of the account is not enough to perform the operation."
        }
      ],
      "FailedInnerCall()": [
        {
          "details": "A call to an address target failed. The target may have reverted."
        }
      ],
      "OwnableInvalidOwner(address)": [
        {
          "details": "The owner is not a valid owner account. (eg. `address(0)`)"
        }
      ],
      "OwnableUnauthorizedAccount(address)": [
        {
          "details": "The caller account is not authorized to perform an operation."
        }
      ],
      "SafeERC20FailedOperation(address)": [
        {
          "details": "An operation with an ERC20 token failed."
        }
      ]
    },
    "kind": "dev",
    "methods": {
      "owner()": {
        "details": "Returns the address of the current owner."
      },
      "renounceOwnership()": {
        "details": "Leaves the contract without owner. It will not be possible to call `onlyOwner` functions. Can only be called by the current owner. NOTE: Renouncing ownership will leave the contract without an owner, thereby disabling any functionality that is only available to the owner."
      },
      "transferOwnership(address)": {
        "details": "Transfers ownership of the contract to a new account (`newOwner`). Can only be called by the current owner."
      }
    },
    "version": 1
  },
  "userdoc": {
    "kind": "user",
    "methods": {},
    "notice": "A simple Strategy contract that allows ERC20 transfers to multiple recipients",
    "version": 1
  },
  "storageLayout": {
    "storage": [
      {
        "astId": 2113,
        "contract": "contracts/YourContract.sol:SimpleGrants",
        "label": "strategyName",
        "offset": 0,
        "slot": "0",
        "type": "t_string_storage"
      },
      {
        "astId": 2617,
        "contract": "contracts/YourContract.sol:SimpleGrants",
        "label": "projects",
        "offset": 0,
        "slot": "1",
        "type": "t_mapping(t_address,t_mapping(t_uint256,t_struct(Registration)2578_storage))"
      },
      {
        "astId": 2621,
        "contract": "contracts/YourContract.sol:SimpleGrants",
        "label": "indexes",
        "offset": 0,
        "slot": "2",
        "type": "t_mapping(t_address,t_uint256)"
      },
      {
        "astId": 8,
        "contract": "contracts/YourContract.sol:SimpleGrants",
        "label": "_owner",
        "offset": 0,
        "slot": "3",
        "type": "t_address"
      }
    ],
    "types": {
      "t_address": {
        "encoding": "inplace",
        "label": "address",
        "numberOfBytes": "20"
      },
      "t_bytes_storage": {
        "encoding": "bytes",
        "label": "bytes",
        "numberOfBytes": "32"
      },
      "t_enum(Status)2572": {
        "encoding": "inplace",
        "label": "enum IRegistry.Status",
        "numberOfBytes": "1"
      },
      "t_mapping(t_address,t_mapping(t_uint256,t_struct(Registration)2578_storage))": {
        "encoding": "mapping",
        "key": "t_address",
        "label": "mapping(address => mapping(uint256 => struct IRegistry.Registration))",
        "numberOfBytes": "32",
        "value": "t_mapping(t_uint256,t_struct(Registration)2578_storage)"
      },
      "t_mapping(t_address,t_uint256)": {
        "encoding": "mapping",
        "key": "t_address",
        "label": "mapping(address => uint256)",
        "numberOfBytes": "32",
        "value": "t_uint256"
      },
      "t_mapping(t_uint256,t_struct(Registration)2578_storage)": {
        "encoding": "mapping",
        "key": "t_uint256",
        "label": "mapping(uint256 => struct IRegistry.Registration)",
        "numberOfBytes": "32",
        "value": "t_struct(Registration)2578_storage"
      },
      "t_string_storage": {
        "encoding": "bytes",
        "label": "string",
        "numberOfBytes": "32"
      },
      "t_struct(Registration)2578_storage": {
        "encoding": "inplace",
        "label": "struct IRegistry.Registration",
        "members": [
          {
            "astId": 2575,
            "contract": "contracts/YourContract.sol:SimpleGrants",
            "label": "status",
            "offset": 0,
            "slot": "0",
            "type": "t_enum(Status)2572"
          },
          {
            "astId": 2577,
            "contract": "contracts/YourContract.sol:SimpleGrants",
            "label": "data",
            "offset": 0,
            "slot": "1",
            "type": "t_bytes_storage"
          }
        ],
        "numberOfBytes": "64"
      },
      "t_uint256": {
        "encoding": "inplace",
        "label": "uint256",
        "numberOfBytes": "32"
      }
    }
  }
}